:1000000000010001000100010001000100010001E8
:1000100000010203000102030001020300010203C8
:1000200000010203040500010203040500010203AC
:100030000001020304050607000102030405060788
:100040000001020304050607080900010203040574
:10005000000102030405060708090A0B0001020358
:10006000000102030405060708090A0B0C0D000134
:10007000000102030405060708090A0B0C0D0E0F08
:100080000000000000000000000000000000000070
:100090000000000000000000000000000000000060
:1000A0000000000000000000000000000000000050
:1000B0000000000000000000000000000000000040
:1000C0000000000000000000000000000000000030
:1000D0000000000000000000000000000000000020
:1000E0000000000000000000000000000000000010
:1000F0000000000000000000000000000000000000
:00000001FF